:060000000A128A11EC2F28
:100C18007E088A007F0882000A128A110C260A12AE
:100C28008A118000840A04087D0603190034FF0A2B
:100C38000319FE0A102EF200831203138814720897
:100C480086000814FE30FF007F088805C330F100D5
:100C5800CD30F000F00B2E2EF10B2E2E0800F200F6
:100C6800FD30FF007F088312031388057208860091
:100C78000814FE30FF007F088805C330F100CD302E
:100C8800F000F00B452EF10B452E0800C0308316FE
:100C98000313870086018312031386018316031347
:100CA80088018312031388012030831603139800E8
:100CB80090308312031398000930831603139900A8
:100CC80008005434523441344E3453344D3449348A
:100CD8005434203444344134543441343A340034A4
:100CE8005234453443344534493456344534443415
:100CF800203444344134543441343A3400343330A9
:100D08000A128A1133260A128A11C330F400CD3030
:100D1800F300F30B8D2EF40B8D2E34300A128A114A
:100D280033260A128A11C330F400CD30F300F30BD6
:100D38009B2EF40B9B2E32300A128A1133260A128C
:100D48008A11C330F400CD30F300F30BA92EF40B55
:100D5800A92E38300A128A1133260A128A11C33092
:100D6800F400CD30F300F30BB72EF40BB72E06309A
:100D78000A128A1133260A128A11C330F400CD30C0
:100D8800F300F30BC52EF40BC52E0C300A128A1192
:100D980033260A128A11C330F400CD30F300F30B66
:100DA800D32EF40BD32E01300A128A1133260A12DD
:100DB8008A11C330F400CD30F300F30BE12EF40BAD
:100DC800E12E08000A128A114A260A128A110A120A
:100DD8008A1183260A128A1180300A128A11332650
:100DE8000A128A11F80178082F3E8400831300083C
:100DF8000A128A111F260A128A110130FF007F0881
:100E0800F8070E307802031C0A2F0B2FF72EC0307C
:100E18000A128A1133260A128A11F8017808203E2C
:100E28008400831300080A128A111F260A128A11E5
:100E38000130FF007F08F8070E307802031C252FC9
:100E4800262F122F831203138C1E2B2F2C2F262FA5
:100E58001A08F900DB2F613099008E300A128A11C6
:100E680033260A128A11831203131A080A128A11E6
:100E78001F260A128A11CE300A128A1133260A1244
:100E88008A118312031319080A128A111F260A12DB
:100E98008A110230F7008630F6009930F500F50B1C
:100EA800532FF60B532FF70B532F262F6230990031
:100EB8008E300A128A1133260A128A1183120313FA
:100EC8001A080A128A111F260A128A11CE300A122B
:100ED8008A1133260A128A118312031319080A1277
:100EE8008A111F260A128A110230F7008630F6008E
:100EF8009930F500F50B7E2FF60B7E2FF70B7E2F22
:100F0800262F633099008E300A128A1133260A126E
:100F18008A11831203131A080A128A111F260A1249
:100F28008A11CE300A128A1133260A128A118312C4
:100F3800031319080A128A111F260A128A1102308D
:100F4800F7008630F6009930F500F50BA92FF60B5F
:100F5800A92FF70BA92F262F643099008E300A127B
:100F68008A1133260A128A11831203131A080A12E5
:100F78008A111F260A128A11CE300A128A113326C4
:100F88000A128A118312031319080A128A111F26DA
:100F98000A128A110230F7008630F6009930F500FF
:100FA800F50BD42FF60BD42FF70BD42F262F790857
:100FB800413A03192F2F033A03195A2F013A0319FB
:100FC800852F073A0319B02F262F0A128A110028F5
:100FD80083133E30FD000630FE006530FF002030F0
:100FE80084000A128A1110260A128A11F801F901DE
:080FF80083010A128A11E62EA2
:02400E003B3F36
:00000001FF
