:060000000A128A11C02F54
:100EC000813400340634003486340034073400346E
:100ED000873400340A128A118B270A128A110A12E7
:100EE0008A11A1270A128A116F2F0A128A1100286B
:100EF0007E088A007F0882000A128A1178270A1267
:100F00008A118000840A04087D0603190034FF0A50
:100F10000319FE0A7C2F831603138701FC3083120A
:100F200003138700F030831603138600F03083121A
:100F3000031386007F30FF007F08831603138105AB
:100F40000800831203130608FA00B12F8701870AED
:100F5000BF2F02308700BF2F03308700BF2F8701CC
:100F6000BF2F7A08703A0319AF2FC03A0319AC2F7C
:100F7000603A0319A92F303A0319A62FAF2F0800A2
:100F80000A128A1160270A128A11F0000A128A11C5
:100F900061270A128A11F1000A128A1162270A12C5
:100FA0008A11F2000A128A1163270A128A11F300C9
:100FB0000A128A1164270A128A11F4000A128A118D
:100FC00065270A128A11F5000A128A1166270A1289
:100FD0008A11F6000A128A1167270A128A11F7008D
:100FE0000A128A1168270A128A11F8000A128A1155
:100FF00069270A128A11F90083010A128A116A2FDD
:00000001FF
