:060000000A128A11ED2F27
:100DF6005634493447344E34453453344834003439
:100E0600003400340034003400340034003400343C
:100E1600003400347E088A007F0882000A128A1194
:100E26000D270A128A118000840A04087D06031918
:100E36000034FF0A0319FE0A112FF200831203136E
:100E46008715720888000714FE30FF007F088705A3
:100E5600C330F100CD30F000F00B2F2FF10B2F2F08
:100E66000800F200F730FF007F088312031387059E
:100E7600720888000714FE30FF007F088705C3301C
:100E8600F100CD30F000F00B462FF10B462F080095
:100E96000A128A1194270A128A118230F500F70184
:100EA60075080A128A1134270A128A110130FF00C6
:100EB6007F08F5077708203E8400831300080A128E
:100EC6008A1120270A128A110130FF007F08F707CE
:100ED60007307702031C702F712F532FCE30F60088
:100EE600F70176080A128A1134270A128A1101308C
:100EF600F6027708203E8400831300080A128A113E
:100F060020270A128A110130FF007F08F7070730F1
:100F16007702031C8F2F902F742F902F0A128A119D
:100F26000028831603138701880133300A128A11B9
:100F360034270A128A11C330F400CD30F300F30BC4
:100F4600A22FF40BA22F34300A128A1134270A1268
:100F56008A11C330F400CD30F300F30BB02FF40B3D
:100F6600B02F35300A128A1134270A128A11C3307B
:100F7600F400CD30F300F30BBE2FF40BBE2F383048
:100F86000A128A1134270A128A11C330F400CD30AE
:100F9600F300F30BCC2FF40BCC2F0C300A128A1172
:100FA60034270A128A11C330F400CD30F300F30B54
:100FB600DA2FF40BDA2F01300A128A1134270A12BB
:100FC6008A11C330F400CD30F300F30BE82FF40B95
:100FD600E82F080083133230FD000630FE00FB3098
:100FE600FF00203084000A128A1111270A128A1182
:0A0FF600F70183010A128A114B2F44
:02400E003B3F36
:00000001FF
