:060000000A128A11E72F2D
:100C98006E344B34653479342034503472346534CE
:100CA800733473346534643420343A342034003473
:100CB8006E30F000652E0A128A1162270A128A1114
:100CC800F0006E30700603196A2E6B2E5F2E7008C6
:100CD80008007E088A007F0882000A128A116D26A1
:100CE8000A128A118000840A04087D060319003458
:100CF800FF0A0319FE0A712EF20083120313071468
:100D0800720888008715D630F0008A2E8B2EF00BDB
:100D1800892E0000F730FF007F0883120313870530
:100D2800C330F100CD30F000F00B982EF10B982E67
:100D38000800F200FE30FF007F08831203138705C6
:100D4800720888008715D630F000AA2EAB2EF00B5B
:100D5800A92E0000F730FF007F08831203138705D0
:100D6800C330F100CD30F000F00BB82EF10BB82EE7
:100D780008000A128A11F3260A128A1180300A1210
:100D88008A119D260A128A11F5017508203E8400F1
:100D9800831300080A128A1180260A128A11013068
:100DA800FF007F08F5070E307502031CDC2EDD2ED0
:100DB800C92E0A128A115C260A128A11F6008E3090
:100DC8000A128A119D260A128A1176080A128A11B5
:100DD80080260A128A11DD2E0A128A110028F030A4
:100DE800831603138600F0308312031386008316DC
:100DF80003138701831203138701831603138801E2
:100E08008312031388017F30FF007F0883160313C2
:100E1800810533300A128A119D260A128A11C330BD
:100E2800F400CD30F300F30B172FF40B172F3430E9
:100E38000A128A119D260A128A11C330F400CD3095
:100E4800F300F30B252FF40B252F35300A128A11E6
:100E58009D260A128A11C330F400CD30F300F30B3B
:100E6800332FF40B332F38300A128A119D260A12B9
:100E78008A11C330F400CD30F300F30B412FF40B8B
:100E8800412F0C300A128A119D260A128A11C3308A
:100E9800F400CD30F300F30B4F2FF40B4F2F01303C
:100EA8000A128A119D260A128A11C330F400CD3025
:100EB800F300F30B5D2FF40B5D2F0800831203136F
:100EC800061086140615061A6A2F6B2F712F061E38
:100ED8006E2F6F2F6B2F3330E62F861A742F752FD6
:100EE8007B2F861E782F792F752F3630E62F061B1D
:100EF8007E2F7F2F852F061F822F832F7F2F39303C
:100F0800E62F861B882F892F8F2F861F8C2F8D2FDA
:100F1800892F2330E62F061486100615061A952FFA
:100F2800962F9C2F061E992F9A2F962F3230E62F38
:100F3800861A9F2FA02FA62F861EA32FA42FA02F7F
:100F48003530E62F061BA92FAA2FB02F061FAD2F6D
:100F5800AE2FAA2F3830E62F861BB32FB42FBA2F07
:100F6800861FB72FB82FB42F3030E62F06148614FB
:100F78000611061AC02FC12FC72F061EC42FC52F52
:100F8800C12F3130E62F861ACA2FCB2FD12F861EBC
:100F9800CE2FCF2FCB2F3430E62F061BD42FD52FB3
:100FA800DB2F061FD82FD92FD52F3730E62F861BDA
:100FB800DE2FDF2FE52F861FE22FE32FDF2F2A30CA
:100FC800E62F6E30080083132F30FD000630FE0038
:100FD8004D30FF00203084000A128A1171260A124F
:100FE8008A110A128A114C260A128A11F600F50192
:080FF80083010A128A11BD2ECB
:02400E003B3F36
:00000001FF
