:060000000A128A11FC2F18
:100B8C000A128A11F0250A128A11023083160313F5
:100B9C00910008000A128A11F0250A128A110130FC
:100BAC0083160313910008000A128A11F0250A1209
:100BBC008A11043083160313910008008316031363
:100BCC0091160A128A11F0250A128A118316031340
:100BDC0011160800831603131419F52DF62DF02D9C
:100BEC0011081F39031DFB2DFC2DF02D0800F00002
:100BFC000A128A11F0250A128A1170088312031343
:100C0C0093008C1D0A2E0B2E072E8C110030831690
:100C1C000313111B013008000A128A11F0250A1265
:100C2C008A11083083160313910083128C1D1F2E1A
:100C3C00202E1B2E8C110A128A11F0250A128A11F1
:100C4C008312031313080800F2000A128A11D0252C
:100C5C000A128A11362E0A128A11C6250A128A1114
:100C6C00A0300A128A11FD250A128A11003A031DBE
:100C7C00402E412E312E00300A128A11FD250A1207
:100C8C008A1172080A128A11FD250A128A1171083A
:100C9C000A128A11FD250A128A110A128A11DA2502
:100CAC000A128A1108002830831203139400831649
:100CBC0003139101831203132008A4002108A5003B
:100CCC002208A6002308A70002300310A40DA50DCE
:100CDC00A60DA70DFF3E031D6B2E2708F30026085B
:100CEC00F2002508F1002408F0000030F700F43081
:100CFC00F6002430F5000030F4000A128A11D126D7
:100D0C000A128A117008FF3E831603139300940194
:100D1C00183087000800F1000A128A11D0250A1237
:100D2C008A119D2E0A128A11C6250A128A11A03028
:100D3C000A128A11FD250A128A11003A031DA72EE8
:100D4C00A82E982E00300A128A11FD250A128A113B
:100D5C0071080A128A11FD250A128A110A128A11C7
:100D6C00C6250A128A11A1300A128A11FD250A120F
:100D7C008A110A128A1112260A128A11F2000A1218
:100D8C008A11E4250A128A110A128A11DA250A122A
:100D9C008A11720808000030FC000030FB000030A3
:100DAC00FA000030F900730872047104700403191E
:100DBC00E02EE12E2E2FFD01FD0AF12E0130F80060
:100DCC000310F00DF10DF20DF30DF80BE62E0130C2
:100DDC00FF007F08FD07F31FF42EF52EE42E0130E3
:100DEC00F8000310F90DFA0DFB0DFC0DF80BF72EA6
:100DFC0073087702031D0C2F72087602031D0C2F4B
:100E0C0071087502031D0C2F70087402031C0F2F40
:100E1C00102F1F2F7008F4027108031C710FF502BC
:100E2C007208031C720FF6027308031C730FF7028F
:100E3C00791401300310F30CF20CF10CF00CFF3EA2
:100E4C00031D202F0130FD02031D2D2F2E2FF52EFB
:100E5C007C08F3007B08F2007A08F1007908F000B6
:100E6C000800003083120313A3000130A200863067
:100E7C00A100A030A0000A128A1159260A128A1168
:100E8C00203083120313AF000030B0000430AE00EA
:100E9C000430F10020300A128A112A260A128A1113
:100EAC000130FF007F0883120313AE070130AF0738
:100EBC000318B00A0030B007343083120313A900B2
:100ECC00F130A800A80B682FA90B682F831203130D
:100EDC002E08F1002F080A128A112A260A128A11EA
:100EEC000130FF007F0883120313AE070130AF07F8
:100EFC000318B00A0030B007343083120313A90072
:100F0C00F130A800A80B882FA90B882F831203138C
:100F1C002E08F1002F080A128A112A260A128A11A9
:100F2C00343083120313A900F130A800A80B9C2FB6
:100F3C00A90B9C2F203083120313AF000030B0009C
:100F4C0083160313880120300A128A1191260A1283
:100F5C008A1183120313AB000130AF070318B00AD8
:100F6C000030B0072B088800153083120313AA0039
:100F7C004B30A900BD30A800A80BC22FA90BC22F63
:100F8C00AA0BC22FC92F831203132F080A128A111E
:100F9C0091260A128A1183120313AC000130AF0799
:100FAC000318B00A0030B0072C08880015308312E3
:100FBC000313AA004B30A900BD30A800A80BE42FE6
:100FCC00A90BE42FAA0BE42FEB2F831203132F088A
:100FDC000A128A1191260A128A1183120313AD0088
:100FEC002D088800F82F0A128A11002883010A1292
:040FFC008A11372FF0
:02400E003B3F36
:00000001FF
