:060000000A128A110E280D
:10000800FE00030EF3000A08F4007F08F5000A1248
:100018008A1147280A128A111128F60183010A1247
:100028008A111628013083160313860001308312C3
:1000380003138600831603138801831203138801B0
:100048008316031387018312031387017F30FF0090
:100058007F0883160313810590308B0083120313E6
:100068008709043083120313A200CF30A1000130A6
:10007800A000A00B3D28A10B3D28A20B3D2832284B
:100088000A128A110E288B1C4A284B2855288312DD
:1000980003130608F6007603031D53285428552831
:1000A8008809FD30FF007F088B051730F200D53036
:1000B800F1001630F000F00B5F28F10B5F28F20B0F
:1000C8005F2800007508FF0074088A00730E83001B
:0600D800FE0E7E0E090081
:02400E003B3F36
:00000001FF
