:060000000A128A11E62F2E
:1002B40064008001840A04060319003404065B29DF
:1002C4000A128A1181210A128A110130831603133A
:1002D400910008000A128A1181210A128A1104303D
:1002E4008316031391000800F0000A128A11812179
:1002F4000A128A11700883120313930008008316EC
:10030400031311081F39031D882989298129141908
:100314008C298D2981290800F20083120313071107
:1003240072088800871487104130F100EE30F00025
:10033400F00B9A29F10B9A2900000800F2008312AD
:100344000313071572088800871487104130F100E1
:10035400EE30F000F00BAC29F10BAC2900000800E2
:100364007E088A007F0882000A128A11B2210A12CA
:100374008A118000840A04087D0603190034FF0AE8
:100384000319FE0AB62944344134543445343A340A
:10039400543449344D3445343A34183400340C342C
:1003A40000341F340034173400343B340034373401
:1003B4000034F401F501701CE029E129E7297208F1
:1003C400F4070318F50A7308F50701300310F20D5A
:1003D400F30DFF3E031DE82901300310F10CF00C6E
:1003E400FF3E031DEF2970087104031DFA29FB2940
:1003F400DD297508F1007408F00008000F30760557
:10040400F80000307705F900760E0F39F000770E0A
:10041400F039F004770E0F39F100F030F11D00309F
:10042400F1040A30F2000030F3000A128A11DB21D1
:100434000A128A1178087007F60079080318790AF5
:100444007107F70008000A128A1181210A128A1121
:1004540008308316031391000A128A1181210A12AB
:100464008A11831203131308F200F3017208F400D3
:100474007308F5000A128A1181210A128A11700880
:1004840071040319462A4A2A8316031391164D2A26
:10049400831603139112103091007508F10074084B
:1004A400F00008000A30F0000030F1007908F30091
:1004B4007808F2000A128A1171230A128A1170084C
:1004C400FA007108FB00FA0EFB0EF030FB057A0807
:1004D4000F39FB04F030FA050A30F0000030F10067
:1004E4007908F3007808F2000A128A1118230A1214
:1004F4008A1170087A07F80071080318710A7B07DB
:10050400F90008000030FC000030FB000030FA0065
:100514000030F900701C8F2A902AA72A7408F90762
:10052400750803110318013E0319992AFA0776087E
:1005340003110318013E0319A02AFB0777080311CE
:100544000318013E0319A72AFC070130F800031021
:10055400F40DF50DF60DF70DF80BA92A0130031073
:10056400F30CF20CF10CF00CFF3E031DB12A7308DE
:10057400720471047004031DC02AC12A8C2A7C08E9
:10058400F3007B08F2007A08F1007908F000080013
:1005940028308312031394008316031394018312E7
:1005A40003132D08B1002E08B2002F08B300300841
:1005B400B40002300310B10DB20DB30DB40DFF3E03
:1005C400031DDC2A3408F3003308F2003208F1007A
:1005D4003108F0000030F7000030F6000030F5007C
:1005E4006430F4000A128A1184220A128A117308F0
:1005F40083120313A3007208A2007108A1007008FB
:10060400A0000130A7003130A6002D30A500003035
:10061400A4000A128A11D8230A128A11831203131E
:100624002008FF3E8316031393000800F501F31F0F
:100634001C2B1D2B242BF209F309F20A0319F30ACC
:10064400F501F50AF11F272B282B2D2BF009F109B1
:10065400F00A0319F10A700871040319322B332BC1
:10066400622BF401F40A412B01300310F00DF10D5B
:10067400FF3E031D372B0130FF007F08F407F11FF5
:10068400442B452B362B71087302031D4B2B70082A
:100694007202031C4E2B4F2B552B7008F20271086B
:1006A400031CF303F30201300310F10CF00CFF3EC2
:1006B400031D562B0130F402031D612B622B452BC5
:1006C40075080319662B672B6C2BF209F309F20AE0
:1006D4000319F30A7308F1007208F0000800F50129
:1006E400F11F752B762B7D2BF009F109F00A031904
:1006F400F10AF501F50AF31F802B812B8A2BF209ED
:10070400F309F20A0319F30A0130FF007F08F50622
:10071400F601F701700871040319912B922BC92B70
:10072400F401F40AA02B01300310F00DF10DFF3E8B
:10073400031D962B0130FF007F08F407F11FA32B44
:10074400A42B952B01300310F60DF70DFF3E031D6E
:10075400A52B71087302031DB12B70087202031CD0
:10076400B42BB52BBC2B7008F2027108031CF303E5
:10077400F302761401300310F10CF00CFF3E031D5C
:10078400BD2B0130F402031DC82BC92BA42B750803
:100794000319CD2BCE2BD32BF609F709F60A03192F
:1007A400F70A7708F1007608F00008000030831299
:1007B4000313AB000030AA000030A9000030A800E9
:1007C40023082204210420040319E92BEA2B372CE3
:1007D400AC01AC0AFA2B0130FD000310A00DA10DF1
:1007E400A20DA30DFD0BEF2B0130FF007F08AC071A
:1007F400A31FFD2BFE2BED2B0130FD000310A80DD4
:10080400A90DAA0DAB0DFD0B002C23082702031D17
:10081400152C22082602031D152C21082502031D70
:10082400152C20082402031C182C192C282C200811
:10083400A4022108031C210FA5022208031C220F75
:10084400A6022308031C230FA70228140130031057
:10085400A30CA20CA10CA00CFF3E031D292C0130FB
:10086400AC02031D362C372CFE2B2B08A3002A08C0
:10087400A2002908A1002808A00008008316031379
:1008840088011830870083120313880134300A1258
:100894008A118E210A128A114130F400EE30F300DD
:1008A400F30B522CF40B522C000033300A128A1131
:1008B4008E210A128A114130F400EE30F300F30B5A
:1008C400612CF40B612C000032300A128A118E2143
:1008D4000A128A114130F400EE30F300F30B702C4D
:1008E400F40B702C000038300A128A118E210A127F
:1008F4008A114130F400EE30F300F30B7F2CF40B3B
:100904007F2C00000C300A128A118E210A128A11DF
:100914004130F400EE30F300F30B8E2CF40B8E2CEC
:10092400000006300A128A118E210A128A114130FF
:10093400F400EE30F300F30B9D2CF40B9D2C00001F
:1009440001300A128A118E210A128A114130F400F0
:10095400EE30F300F30BAC2CF40BAC2C00000800CD
:100964000A128A1162210A128A11D0300A128A11DB
:1009740076210A128A1100300A128A1176210A128B
:100984008A11831203134D08F9004C08F8000A1267
:100994008A1154220A128A1178080A128A117621BD
:1009A4000A128A11831203134B08F9004A08F8004B
:1009B4000A128A1154220A128A1178080A128A1118
:1009C40076210A128A11831203134908F900480890
:1009D400F8000A128A1154220A128A1178080A129B
:1009E4008A1176210A128A1100300A128A1176219C
:1009F4000A128A11831203134708F9004608F80003
:100A04000A128A1154220A128A1178080A128A11C7
:100A140076210A128A11831203134508F900440847
:100A2400F8000A128A1154220A128A1178080A124A
:100A34008A1176210A128A11831203134308F900DA
:100A44004208F8000A128A1154220A128A117808FC
:100A54000A128A1176210A128A110A128A116C2149
:100A64000A128A1108000A128A1162210A128A11D2
:100A7400D0300A128A1176210A128A1100300A1221
:100A84008A1176210A128A110A128A116C210A1219
:100A94008A110A128A1162210A128A11D1300A12A9
:100AA4008A1176210A128A110130F0000030F10017
:100AB4000A128A1125220A128A117108F700700895
:100AC400F6000A128A1100220A128A117708831288
:100AD4000313CD007608CC000130F0000030F100A3
:100AE4000A128A1125220A128A117108F700700865
:100AF400F6000A128A1100220A128A117708831258
:100B04000313CB007608CA000130F0000030F10076
:100B14000A128A1125220A128A117108F700700834
:100B2400F6000A128A1100220A128A117708831227
:100B34000313C9007608C8000130F0000030F1004A
:100B44000A128A1125220A128A110130F00000309B
:100B5400F1000A128A1125220A128A117108F7007B
:100B64007008F6000A128A1100220A128A11770804
:100B740083120313C7007608C6000130F00000306A
:100B8400F1000A128A1125220A128A117108F7004B
:100B94007008F6000A128A1100220A128A117708D4
:100BA40083120313C5007608C4000130F00000303E
:100BB400F1000A128A1125220A128A117108F7001B
:100BC4007008F6000A128A1100220A128A117708A4
:100BD40083120313C3007608C2000A128A116C211F
:100BE4000A128A110A128A1162210A128A11D13058
:100BF4000A128A1176210A128A110130F00000309B
:100C0400F1000A128A1125220A128A110A128A1183
:100C14006C210A128A1108000A128A1140240A124D
:100C24008A11003083120313B0000030AF0000308B
:100C3400AE006430AD000A128A11CA220A128A1167
:100C44000A128A11B2240A128A110A128A1135254B
:100C54000A128A110A30F0000030F10083120313E3
:100C64004D08F3004C08F2000A128A1171230A128B
:100C74008A11700883120313E1000A30F000003077
:100C8400F1004D08F3004C08F2000A128A111823EF
:100C94000A128A11700883120313E0000A30F0006C
:100CA4000030F1004B08F3004A08F2000A128A11DE
:100CB40071230A128A11700883120313DF000A30A9
:100CC400F0000030F1004B08F3004A08F2000A1269
:100CD4008A1118230A128A11700883120313DE0082
:100CE4000A30F0000030F1004908F3004808F2002F
:100CF4000A128A1171230A128A11700883120313CB
:100D0400DD000A30F0000030F1004908F300480823
:100D1400F2000A128A1118230A128A117008831227
:100D24000313DC000A30F0000030F1004708F30040
:100D34004608F2000A128A1171230A128A117008F5
:100D440083120313DB000A30F0000030F10047087F
:100D5400F3004608F2000A128A1118230A128A11B3
:100D6400700883120313DA000A30F0000030F10037
:100D74004508F3004408F2000A128A1171230A128A
:100D84008A11700883120313D9000A30F00000306E
:100D9400F1004508F3004408F2000A128A111823EE
:100DA4000A128A11700883120313D8000A30F00063
:100DB4000030F1004308F3004208F2000A128A11DD
:100DC40071230A128A11700883120313D7000A30A0
:100DD400F0000030F1004308F3004208F2000A1268
:100DE4008A1118230A128A11700883120313D60079
:100DF400C0300A128A118E210A128A118312031337
:100E0400D401D5018312031354083D3E8400831397
:100E140000080A128A11A0210A128A1101308312D1
:100E24000313D4070318D50A0030D5075508803AB0
:100E3400FF0080307F02031D212F05305402031C64
:100E4400242F252F042F831203135D08303E0A122A
:100E54008A11A0210A128A11831203135C08303EFE
:100E64000A128A11A0210A128A112D300A128A113B
:100E7400A0210A128A11831203135F08303E0A125A
:100E84008A11A0210A128A11831203135E08303ECC
:100E94000A128A11A0210A128A112D300A128A110B
:100EA400A0210A128A11831203136108303E0A1228
:100EB4008A11A0210A128A11831203136008303E9A
:100EC4000A128A11A0210A128A1180300A128A1188
:100ED4008E210A128A1183120313D401D5018312BD
:100EE40003135408383E8400831300080A128A113D
:100EF400A0210A128A11013083120313D4070318A4
:100F0400D50A0030D5075508803AFF0080307F02AB
:100F1400031D8E2F05305402031C912F922F712F25
:100F2400831203135B08303E0A128A11A0210A12AD
:100F34008A11831203135A08303E0A128A11A0211F
:100F44000A128A112D300A128A11A0210A128A115A
:100F5400831203135908303E0A128A11A0210A127F
:100F64008A11831203135808303E0A128A11A021F1
:100F74000A128A112D300A128A11A0210A128A112A
:100F8400831203135708303E0A128A11A0210A1251
:100F94008A11831203135608303E0A128A11A021C3
:100FA4000A128A11033083120313B7008A30B60081
:100FB4005530B500B50BDC2FB60BDC2FB70BDC2F8F
:100FC400272E0A128A11002883134E30FD000130A7
:100FD400FE00C530FF00383084000A128A11B621A1
:100FE4000A128A114E30840062300A128A115A2180
:0C0FF4000A128A1183010A128A110E2EC3
:08400000FF3FFF3FFF3FFF3FC0
:02400E00723FFF
:00000001FF
