:060000000A128A11FC2F18
:100BE0000A128A111A260A128A1102308316031376
:100BF000910008000A128A111A260A128A1101307D
:100C000083160313910008000A128A111A260A1289
:100C10008A1104308316031391000800831603130E
:100C200091160A128A111A260A128A1183160313C0
:100C3000111608008316031314191F2E202E1A2EC6
:100C400011081F39031D252E262E1A2E0800F0002C
:100C50000A128A111A260A128A11700883120313C3
:100C600093008C1D342E352E312E8C1100308316BE
:100C70000313111B013008000A128A111A260A12E6
:100C80008A11083083160313910083128C1D492E9C
:100C90004A2E452E8C110A128A111A260A128A111E
:100CA00083120313130808000A128A11FA250A1284
:100CB0008A115F2E0A128A11F0250A128A11A030B9
:100CC0000A128A1127260A128A11003A031D692E78
:100CD0006A2E5A2E72080A128A1127260A128A11BF
:100CE00071080A128A1127260A128A1173080A1239
:100CF0008A1127260A128A110A128A1104260A1258
:100D00008A110800283083120313940083160313FA
:100D10009101831203132008A4002108A5002208D2
:100D2000A6002308A70002300310A40DA50DA60DF0
:100D3000A70DFF3E031D942E2708F3002608F2009E
:100D40002508F1002408F0000030F700F430F60028
:100D50002430F5000030F4000A128A11F9260A1234
:100D60008A117008FF3E8316031393009401183014
:100D7000870008000A128A11FA250A128A11C52E64
:100D80000A128A11F0250A128A11A0300A128A1159
:100D900027260A128A11003A031DCF2ED02EC02E0C
:100DA00072080A128A1127260A128A1171080A1279
:100DB0008A1127260A128A110A128A11F0250A12AC
:100DC0008A11A1300A128A1127260A128A110A12E0
:100DD0008A113C260A128A11F3000A128A110E2681
:100DE0000A128A110A128A1104260A128A11730839
:100DF00008000030FC000030FB000030FA0000303A
:100E0000F90073087204710470040319082F092F84
:100E1000562FFD01FD0A192F0130F8000310F00DC7
:100E2000F10DF20DF30DF80B0E2F0130FF007F08CE
:100E3000FD07F31F1C2F1D2F0C2F0130F80003108E
:100E4000F90DFA0DFB0DFC0DF80B1F2F730877023F
:100E5000031D342F72087602031D342F71087502AA
:100E6000031D342F70087402031C372F382F472FAF
:100E70007008F4027108031C710FF5027208031C5C
:100E8000720FF6027308031C730FF7027914013016
:100E90000310F30CF20CF10CF00CFF3E031D482F75
:100EA0000130FD02031D552F562F1D2F7C08F30026
:100EB0007B08F2007A08F1007908F00008000030A1
:100EC00083120313A3000130A2008630A100A030DA
:100ED000A0000A128A1182260A128A112330F10018
:100EE0000030F2004130F3000A128A1154260A122F
:100EF0008A11343083120313A900F130A800A80B23
:100F00007F2FA90B7F2F2830F1000030F2004230F4
:100F1000F3000A128A1154260A128A1134308312FD
:100F20000313A900F130A800A80B942FA90B942F4C
:100F30003630F1000030F2004330F3000A128A111B
:100F400054260A128A11343083120313A900F13097
:100F5000A800A80BA92FA90BA92F8316031388019A
:100F60002330F1000030F2000A128A11BA260A1268
:100F70008A1183120313AB002B08880029308312D7
:100F80000313AA009630A9007E30A800A80BC62F34
:100F9000A90BC62FAA0BC62F00002830F100003085
:100FA000F2000A128A11BA260A128A118312031356
:100FB000AC002C088800293083120313AA00963055
:100FC000A9007E30A800A80BE32FA90BE32FAA0BE2
:100FD000E32F00003630F1000030F2000A128A11CF
:100FE000BA260A128A1183120313AD002D08880055
:100FF000F82F0A128A11002883010A128A115F2F22
:02400E003B3F36
:00000001FF
