:060000000A128A11FB2F19
:100F7800C030831603138700880183120313880186
:100F880020308316031398009030831203139800BF
:100F9800093083160313990008000A128A11BC2726
:100FA8000A128A11831203138C1EDB2FDC2FD62F13
:100FB8001A08F000EA2F10308800D62F0230880077
:100FC800D62F12308800D62F8801D62F7008613AA4
:100FD8000319DF2F033A0319E22F013A0319E52F0A
:100FE800073A0319E82FE82F0A128A110028F0019E
:080FF80083010A128A11D12FB6
:02400E003B3F36
:00000001FF
