:060000000A128A11E62F2E
:1007F80064008001840A0406031900340406FD2BF2
:100808004134443443342034433441344C343A344E
:10081800203441344434433420345234413457343E
:100828003A3420347E088A007F0882000A128A112E
:1008380016240A128A118000840A04087D06031906
:100848000034FF0A0319FE0A1A2CF200831203135C
:100858000715720888000714FE30FF007F08870517
:10086800C330F100CD30F000F00B382CF10B382CF0
:100878000800F200F101721C422C432C472C70082E
:10088800FF007F08F1070310F00D0310F20C720847
:10089800031D4F2C502C3F2C71080800F200FB3030
:1008A800FF007F0883120313870572088800071466
:1008B800FE30FF007F088705C330F100CD30F0001F
:1008C800F00B642CF10B642C0800F401F501701C8A
:1008D8006E2C6F2C752C7208F4070318F50A730830
:1008E800F50701300310F20DF30DFF3E031D762CC2
:1008F80001300310F10CF00CFF3E031D7D2C700835
:100908007104031D882C892C6B2C7508F100740860
:10091800F0000800FA01FB01760877040319952C0A
:10092800962CCD2CFC01FC0AA42C01300310F60DEA
:10093800F70DFF3E031D9A2C0130FF007F08FC07CE
:10094800F71FA72CA82C992C01300310FA0DFB0DCA
:10095800FF3E031DA92C77087902031DB52C7608E4
:100968007802031CB82CB92CC02C7608F80277083A
:10097800031CF903F9027A1401300310F70CF60C82
:10098800FF3E031DC12C0130FC02031DCC2CCD2CD5
:10099800A82C7B08F7007A08F60008000030FC0055
:1009A8000030FB000030FA000030F900701CDD2C2C
:1009B800DE2CF52C7408F907750803110318013E9D
:1009C8000319E72CFA07760803110318013E0319E7
:1009D800EE2CFB07770803110318013E0319F52CC9
:1009E800FC070130F8000310F40DF50DF60DF70DB6
:1009F800F80BF72C01300310F30CF20CF10CF00C8F
:100A0800FF3E031DFF2C7308720471047004031D5C
:100A18000E2D0F2DDA2C7C08F3007B08F2007A08E3
:100A2800F1007908F00008000430831603138500EC
:100A3800870188019130831203139F008930831640
:100A480003139F0038300A128A1152240A128A119D
:100A5800C330F400CD30F300F30B302DF40B302D00
:100A680006300A128A1152240A128A11C330F4007D
:100A7800CD30F300F30B3E2DF40B3E2D0C300A1253
:100A88008A1152240A128A11C330F400CD30F300BF
:100A9800F30B4C2DF40B4C2D01300A128A11522401
:100AA8000A128A11C330F400CD30F300F30B5A2D2B
:100AB800F40B5A2D0800003083120313C1000030D4
:100AC800C0000030BF000030BE00390838043704C9
:100AD80036040319702D712DBE2DC201C20A812D55
:100AE8000130FD000310B60DB70DB80DB90DFD0BA3
:100AF800762D0130FF007F08C207B91F842D852D90
:100B0800742D0130FD000310BE0DBF0DC00DC10DC9
:100B1800FD0B872D39083D02031D9C2D38083C022A
:100B2800031D9C2D37083B02031D9C2D36083A02F5
:100B3800031C9F2DA02DAF2D3608BA023708031CC1
:100B4800370FBB023808031C380FBC023908031CD6
:100B5800390FBD023E1401300310B90CB80CB70CA4
:100B6800B60CFF3E031DB02D0130C202031DBD2D82
:100B7800BE2D852D4108B9004008B8003F08B700D0
:100B88003E08B60008000A128A1118250A128A11AE
:100B980080300A128A1152240A128A11831203130E
:100BA800CB014B08553E8400831300080A128A11B2
:100BB80029240A128A110130FF007F0883120313C7
:100BC800CB0709304B02031CEA2DEB2DD52DC03085
:100BD8000A128A1152240A128A1183120313CB01B2
:100BE8004B084C3E8400831300080A128A112924FA
:100BF8000A128A110130FF007F0883120313CB0702
:100C080009304B02031C092E0A2EF42DCD300A128E
:100C18008A1152240A128A1156300A128A1129247A
:100C28000A128A119130831203139F001F151F198E
:100C38001E2E1F2E1B2E1E08C300C4014308B00021
:100C48004408B100831603131E0883120313C3005C
:100C5800C4014308B2004408B3003208C300330893
:100C6800C400C501C6013008C7003108C800C90161
:100C7800CA0108300310C70DC80DC90DCA0DFF3EC3
:100C8800031D3E2E43084704A40044084804A50059
:100C980045084904A60046084A04A7000030B900E0
:100CA8000030B8000330B700FF30B6002708F30063
:100CB8002608F2002508F1002408F0000030F700AB
:100CC8000030F6000030F5006430F4000A128A1192
:100CD800D2240A128A11730883120313BD00720802
:100CE800BC007108BB007008BA000A128A115F259F
:100CF8000A128A11831203133908A3003808A200C4
:100D08003708A1003608A00089300A128A11522437
:100D18000A128A11831203132508B7002408B600A3
:100D28000A128A11B9260A128A11C9300A128A11BE
:100D380052240A128A11831203132108B7002008CB
:100D4800B6000A128A11B9260A128A11C330831210
:100D58000313C400CC30C300C30BB02EC40BB02E99
:100D68000000162E0A128A1100288312031337086E
:100D7800BF003608BE00E830F6000330F7003F0831
:100D8800F9003E08F8000A128A118E240A128A1104
:100D9800760883120313B800B9013808AC00390883
:100DA800AD006430F6000030F7002D08F1002C0883
:100DB800F0001830F200FC30F3000A128A1169249E
:100DC8000A128A11831203133E087007F8003F08BD
:100DD80003183F0A7107F9000A128A118E240A12B1
:100DE8008A11760883120313B800B9013808AE00D7
:100DF8003908AF000A30F6000030F7002D08F1007E
:100E08002C08F0001830F200FC30F3000A128A11A6
:100E180069240A128A11700883120313B800710832
:100E2800B9002F08F1002E08F0009C30F200FF30C6
:100E3800F3000A128A1169240A128A1170088312AF
:100E480003133807BA0071080318710A3907BB0081
:100E58003E083A07F8003F0803183F0A3B07F90025
:100E68000A128A118E240A128A1176088312031331
:100E7800BC00BD013C08A8003D08A9001830F000DE
:100E88002C080A128A113D240A128A1183120313AC
:100E9800B8009C30F0002E080A128A113D240A126C
:100EA8008A1183120313B900F630F00028080A12D9
:100EB8008A113D240A128A1183120313390738074D
:100EC8003E07BA00BB013A08AA003B08AB002C0851
:100ED8002D040319702F712F792F2C08303E0A1218
:100EE8008A1129240A128A117F2F20300A128A11A6
:100EF80029240A128A11831203132E082F04031DB2
:100F0800862F872F8D2F2C082D0403198C2F8D2FBA
:100F1800952F2E08303E0A128A1129240A128A11A6
:100F28009B2F20300A128A1129240A128A1183124F
:100F3800031328082904031DA22FA32FAF2F2E085F
:100F48002F04031DA82FA92FAF2F2C082D04031938
:100F5800AE2FAF2FB72F2808303E0A128A11292446
:100F68000A128A11BD2F20300A128A1129240A1266
:100F78008A11831203132C082D04031DC42FC52FB7
:100F8800D72F2E082F04031DCA2FCB2FD72F2808A1
:100F98002904031DD02FD12FD72F2A082B0403197A
:100FA800D62FD72FDF2F2A08303E0A128A1129247C
:100FB8000A128A11E52F20300A128A1129240A12EE
:100FC8008A11080083135E30FD000430FE000430EF
:100FD800FF004C3084000A128A111A240A128A115E
:100FE8002030840036300A128A11FC230A128A1132
:080FF80083010A128A11C72DC2
:02400E003B3F36
:00000001FF
