:060000000A128A110E280D
:10000800FE00030EF3000A08F4007F08F5000A1248
:100018008A1147280A128A111128F60183010A1247
:100028008A111628F030831603138600F0308312E5
:1000380003138600831603138801831203138801B0
:100048008316031387018312031387017F30FF0090
:100058007F0883160313810588308B0083120313EE
:100068008709043083120313A200CF30A1000130A6
:10007800A000A00B3D28A10B3D28A20B3D2832284B
:100088000A128A110E280B1C4A284B28562883125C
:1000980003130608F60070307606031D5428552809
:1000A80056288809FE30FF007F088B050C30F200C7
:1000B8006B30F1000930F000F00B6028F10B60287C
:1000C800F20B602867287508FF0074088A00730E11
:0800D8008300FE0E7E0E0900FC
:02400E003B3F36
:00000001FF
