:060000000A128A11F32F21
:100CA60064008001840A0406031900340406542EE5
:100CB600F200831203138715720888000714FE30AA
:100CC600FF007F088705C330F100CD30F000F00B40
:100CD6006A2EF10B6A2E0800F900F801791C742EB1
:100CE600752E792E7708FF007F08F8070310F70D99
:100CF6000310F90C7908031D812E822E712E7808B7
:100D06000800F200F730FF007F08831203138705FF
:100D1600720888000714FE30FF007F088705C3307D
:100D2600F100CD30F000F00B962EF10B962E080058
:100D3600F401F501700871040319A22EA32EDA2E10
:100D4600F601F60AB12E01300310F00DF10DFF3E4B
:100D5600031DA72E0130FF007F08F607F11FB42EF2
:100D6600B52EA62E01300310F40DF50DFF3E031D22
:100D7600B62E71087302031DC22E70087202031C80
:100D8600C52EC62ECD2E7008F2027108031CF30381
:100D9600F302741401300310F10CF00CFF3E031D36
:100DA600CE2E0130F602031DD92EDA2EB52E750889
:100DB600F1007408F00008000A128A1131270A129D
:100DC6008A11213083120313AE000230AF00643063
:100DD600AC000030AD002B30B2003D30B0002D30FD
:100DE600B10080300A128A1184260A128A11213033
:100DF600FA000230FB000A128A118A270A128A11A7
:100E06002D300A128A115B260A128A116430FA0002
:100E16000030FB000A128A118A270A128A113D3015
:100E26000A128A115B260A128A11BD308312031335
:100E3600A6000130A7002B300A128A115B260A127F
:100E46008A11BD30FA000130FB000A128A118A2786
:100E56000A128A112D2F0A128A11002883160313EB
:100E66008701880133300A128A1184260A128A11F0
:100E7600C330F400CD30F300F30B3F2FF40B3F2FBC
:100E860034300A128A1184260A128A11C330F400F9
:100E9600CD30F300F30B4D2FF40B4D2F35300A12E6
:100EA6008A1184260A128A11C330F400CD30F30069
:100EB600F30B5B2FF40B5B2F38300A128A11842652
:100EC6000A128A11C330F400CD30F300F30B692FF8
:100ED600F40B692F0C300A128A1184260A128A1121
:100EE600C330F400CD30F300F30B772FF40B772FDC
:100EF60001300A128A1184260A128A11C330F400BC
:100F0600CD30F300F30B852FF40B852F0800FD0180
:100F1600FD0A7B0883120313A9007A08A800C92FCB
:100F2600F630F7002908F3002808F2000A30F0002E
:100F36000030F1000A128A119B260A128A117008E3
:100F46000A128A116F260A128A11831203132807BE
:100F5600FC007D08203E84007C088313800001305D
:100F6600FF007F08FD070A30F0000030F100290875
:100F7600F3002808F2000A128A119B260A128A1127
:100F8600710883120313A9007008A8002808290411
:100F9600031DCE2FCF2F932F7D08203E8400831371
:100FA60080017D08FF3EFD00ED2F7D08203E840078
:100FB60083130008303E83120313AA00003003187F
:100FC6000130AB002A080A128A115B260A128A111E
:100FD6000130FD027D08031DF12FF22FD82F0800E6
:100FE60083132030840034300A128A1153260A12E1
:0A0FF6008A1183010A128A11DF2E0E
:02400E003B3F36
:00000001FF
