:060000000A128A11E42F30
:100F4C00831603138701080083120313870108001B
:100F5C0007340034873400342030831203138700A5
:100F6C0008000A128A11A6270A128A110A128A117B
:100F7C00B2270A128A111730F600D530F500163058
:100F8C00F400F40BC72FF50BC72FF60BC72F00007F
:100F9C000A128A11AA270A128A111730F600D530C4
:100FAC00F5001630F400F40BD92FF50BD92FF60BF6
:100FBC00D92F0000BC2F0A128A1100280A128A119C
:100FCC00AE270A128A11F0000A128A11AF270A12F0
:100FDC008A11F1000A128A11B0270A128A11F20042
:100FEC000A128A11B1270A128A11F30083010A121C
:040FFC008A11B72F70
:00000001FF
