:060000000A128A110E280D
:10000800FE00030EF0000A08F1007F08F2000A1251
:100018008A1116280A128A111128F30183010A127B
:100028008A113C28831203138C1D1B281C282228A4
:100038001308F300F730FF007F088C057208FF00F3
:1000480071088A00700E8300FE0E7E0E09002430AF
:100058008312031394008316031394011830870046
:1000680007309F00851608308C00C0308B000800D0
:100078000A128A112B200A128A11F03083160313F0
:10008800860073088312860045280A128A110E28F2
:02400E003B3F36
:00000001FF
