:060000000A128A11FC2F18
:100EE4000A128A1180270A128A110A128A11BC274F
:100EF4000A128A11772F0A128A110028FB308316EE
:100F0400031387000F3083120313970006309200F7
:100F14002E308316031392000230F5007508F60094
:100F240003300310F60DFF3E031D932F0310760DBF
:100F3400F5000930F400F301F30A7308F6000330F6
:100F44000310F60DFF3E031DA22F0310760DF300D0
:100F54001C30F200F101F10A7108F60003300310AD
:100F6400F60DFF3E031DB12F0310760DF1002A305C
:100F7400F000080074088312031395001708CF3992
:100F8400750497001730F800D530F7001630F600D6
:100F9400F60BCA2FF70BCA2FF80BCA2F00007208E2
:100FA400831203139B001708CF397304970017307B
:100FB400F800D530F7001630F600F60BDF2FF70BEC
:100FC400DF2FF80BDF2F0000700883120313950046
:100FD4001708CF39710497001730F800D530F7009F
:100FE4001630F600F60BF42FF70BF42FF80BF42F52
:0C0FF4000000080083010A128A11722F0D
:02400E003B3F36
:00000001FF
