:060000000A128A11FB2F19
:100EC4007F30FF007F08831603138105C03087003D
:100ED4008801831203138801F030831603138600FC
:100EE4008312031386012030831603139800903075
:100EF4008312031398000930831603139900080022
:100F04000A128A1162270A128A118312031306082D
:100F1400F300C82F413099000230F2008630F1000E
:100F24009930F000F00B942FF10B942FF20B942FC7
:100F3400D62F423099000230F2008630F100993009
:100F4400F000F00BA32FF10BA32FF20BA32FD62F3E
:100F5400433099000230F2008630F1009930F000FD
:100F6400F00BB22FF10BB22FF20BB22FD62F44306D
:100F740099000230F2008630F1009930F000F00B55
:100F8400C12FF10BC12FF20BC12FD62F7308703A6A
:100F94000319B92FC03A0319AA2F603A03199B2FDA
:100FA400303A03198C2FD62F831203138C1EDB2F98
:100FB400DC2F872F1A08F400EA2F02308800872FCD
:100FC40001308800872F03308800872F8801872FFE
:100FD4007408613A0319DF2F033A0319E22F013A27
:100FE4000319E52F073A0319E82FE82F0A128A118B
:0C0FF4000028F40183010A128A11822FE8
:00000001FF
