:060000000A128A11E62F2E
:1007620064008001840A0406031900340406B22BD3
:100772004134443443342034433441344C343A34E5
:1007820020344134443443342034523441345734D5
:100792003A3420347E088A007F0882000A128A11C5
:1007A200CB230A128A118000840A04087D060319E9
:1007B2000034FF0A0319FE0ACF2BF200831203133F
:1007C2008715720888000714FE30FF007F0887052E
:1007D200C330F100CD30F000F00BED2BF10BED2B1F
:1007E2000800F200F101721CF72BF82BFC2B7008A9
:1007F200FF007F08F1070310F00D0310F20C7208DE
:10080200031D042C052CF42B71080800F200F730AC
:10081200FF007F08831203138705720888000714FC
:10082200FE30FF007F088705C330F100CD30F000B5
:10083200F00B192CF10B192C0800F401F501701CB6
:10084200232C242C2A2C7208F4070318F50A7308A7
:10085200F50701300310F20DF30DFF3E031D2B2CA3
:1008620001300310F10CF00CFF3E031D322C700816
:100872007104031D3D2C3E2C202C7508F1007408D8
:10088200F0000800FA01FB017608770403194A2CEC
:100892004B2C822CFC01FC0A592C01300310F60D62
:1008A200F70DFF3E031D4F2C0130FF007F08FC07B0
:1008B200F71F5C2C5D2C4E2C01300310FA0DFB0D42
:1008C200FF3E031D5E2C77087902031D6A2C760811
:1008D2007802031C6D2C6E2C752C7608F8027708B2
:1008E200031CF903F9027A1401300310F70CF60C19
:1008F200FF3E031D762C0130FC02031D812C822C4D
:100902005D2C7B08F7007A08F60008000030FC0036
:100912000030FB000030FA000030F900701C922C0D
:10092200932CAA2C7408F907750803110318013EC9
:1009320003199C2CFA07760803110318013E0319C8
:10094200A32CFB07770803110318013E0319AA2CF5
:10095200FC070130F8000310F40DF50DF60DF70D4C
:10096200F80BAC2C01300310F30CF20CF10CF00C70
:10097200FF3E031DB42C7308720471047004031D3E
:10098200C32CC42C8F2C7C08F3007B08F2007A085D
:10099200F1007908F0000800003083120313C1004F
:1009A2000030C0000030BF000030BE0039083804FB
:1009B200370436040319DE2CDF2C2C2DC201C20AA7
:1009C200EF2C0130FD000310B60DB70DB80DB90DB7
:1009D200FD0BE42C0130FF007F08C207B91FF22C87
:1009E200F32CE22C0130FD000310BE0DBF0DC00D33
:1009F200C10DFD0BF52C39083D02031D0A2D3808E7
:100A02003C02031D0A2D37083B02031D0A2D36083E
:100A12003A02031C0D2D0E2D1D2D3608BA02370881
:100A2200031C370FBB023808031C380FBC023908FD
:100A3200031C390FBD023E1401300310B90CB80C6F
:100A4200B70CB60CFF3E031D1E2D0130C202031D62
:100A52002B2D2C2DF32C4108B9004008B8003F087B
:100A6200B7003E08B6000800013083160313850064
:100A7200870188010F30831203139700063092001A
:100A82005D308316031392008130831203139F009B
:100A92008E30831603139F0033300A128A11072403
:100AA2000A128A11C330F400CD30F300F30B572D34
:100AB200F40B572D32300A128A1107240A128A11B6
:100AC200C330F400CD30F300F30B652DF40B652D2C
:100AD20035300A128A1107240A128A11C330F4002F
:100AE200CD30F300F30B732DF40B732D38300A1253
:100AF2008A1107240A128A11C330F400CD30F300A0
:100B0200F30B812DF40B812D06300A128A11072472
:100B12000A128A11C330F400CD30F300F30B8F2D8B
:100B2200F40B8F2D0C300A128A1107240A128A1133
:100B3200C330F400CD30F300F30B9D2DF40B9D2D4B
:100B420001300A128A1107240A128A11C330F400F2
:100B5200CD30F300F30BAB2DF40BAB2D08000A12D2
:100B62008A1135250A128A1180300A128A11072445
:100B72000A128A1183120313CB014B08553E8400DB
:100B8200831300080A128A11DE230A128A11013025
:100B9200FF007F0883120313CB0709304B02031CAB
:100BA200D32DD42DBE2DC0300A128A1107240A1269
:100BB2008A1183120313CB014B084C3E840083132A
:100BC20000080A128A11DE230A128A110130FF007C
:100BD2007F0883120313CB0709304B02031CF22D4B
:100BE200F32DDD2DCD300A128A1107240A128A1143
:100BF20056300A128A11DE230A128A1181308312B8
:100C020003139F001F151F19072E082E042E1E08FE
:100C1200C300C4014308B0004408B10083160313A3
:100C22001E0883120313C300C4014308B200440820
:100C3200B3003208C3003308C400C501C60130083E
:100C4200C7003108C800C901CA0108300310C70D26
:100C5200C80DC90DCA0DFF3E031D272E43084704C8
:100C6200A40044084804A50045084904A600460813
:100C72004A04A7000030B9000030B8000330B700C2
:100C8200FF30B6002708F3002608F2002508F1001D
:100C92002408F0000030F7000030F6000130F500C3
:100CA2005230F4000A128A1187240A128A11730838
:100CB20083120313BD007208BC007108BB007008E8
:100CC200BA000A128A11CD240A128A11831203135E
:100CD2003908A3003808A2003708A1003608A0008E
:100CE20089300A128A1107240A128A118312031305
:100CF2002508B7002408B6000A128A11B9260A127A
:100D02008A11C9300A128A1107240A128A1183121F
:100D120003132108B7002008B6000A128A11B92667
:100D22000A128A11831203132008C3002108C40087
:100D32002208C5002308C60002300310C60CC50CE9
:100D4200C40CC30CFF3E031D9E2E430895002008D1
:100D52000339C30004300310C30DFF3E031DAC2E44
:100D62001708CF3943049700FF2D0A128A11002871
:100D7200831203133708BF003608BE00E830F600BE
:100D82000330F7003F08F9003E08F8000A128A1102
:100D920043240A128A11760883120313B800B90198
:100DA2003808AC003908AD006430F6000030F700B6
:100DB2002D08F1002C08F0001830F200FC30F3008E
:100DC2000A128A111E240A128A11831203133E0880
:100DD2007007F8003F0803183F0A7107F9000A126A
:100DE2008A1143240A128A11760883120313B80067
:100DF200B9013808AE003908AF000A30F6000030F9
:100E0200F7002D08F1002C08F0001830F200FC3039
:100E1200F3000A128A111E240A128A117008831220
:100E22000313B8007108B9002F08F1002E08F00072
:100E32009C30F200FF30F3000A128A111E240A12BB
:100E42008A117008831203133807BA007108031855
:100E5200710A3907BB003E083A07F8003F08031839
:100E62003F0A3B07F9000A128A1143240A128A1127
:100E7200760883120313BC00BD013C08A8003D089C
:100E8200A9001830F0002C080A128A11F2230A1263
:100E92008A1183120313B8009C30F0002E080A1244
:100EA2008A11F2230A128A1183120313B900F6304F
:100EB200F00028080A128A11F2230A128A118312F8
:100EC2000313390738073E07BA00BB013A08AA00E4
:100ED2003B08AB002C082D040319702F712F792FBA
:100EE2002C08303E0A128A11DE230A128A117F2F41
:100EF20020300A128A11DE230A128A118312031386
:100F02002E082F04031D862F872F8D2F2C082D04CA
:100F120003198C2F8D2F952F2E08303E0A128A111D
:100F2200DE230A128A119B2F20300A128A11DE2335
:100F32000A128A118312031328082904031DA22FFF
:100F4200A32FAF2F2E082F04031DA82FA92FAF2FD9
:100F52002C082D040319AE2FAF2FB72F2808303ECF
:100F62000A128A11DE230A128A11BD2F20300A12B8
:100F72008A11DE230A128A11831203132C082D040C
:100F8200031DC42FC52FD72F2E082F04031DCA2FD0
:100F9200CB2FD72F28082904031DD02FD12FD72FCD
:100FA2002A082B040319D62FD72FDF2F2A08303E09
:100FB2000A128A11DE230A128A11E52F20300A1240
:100FC2008A11DE230A128A11080083135E30FD00A3
:100FD2000330FE00B930FF004C3084000A128A113F
:100FE200CF230A128A112030840036300A128A1165
:0E0FF200B1230A128A1183010A128A11B02D4E
:02400E003B3F36
:00000001FF
