:100000000A128A11FC2F00308A000408840A820731
:100010000034413400344234003443340034443436
:020020000034AA
:100F6A007F30FF007F08831603138105C030870096
:100F7A00F030860083120313860120308316031390
:100F8A0098009030831203139800093083160313D4
:100F9A00990008000A128A11B5270A128A118312C7
:100FAA0003130608F200E22F01309900033099007A
:100FBA000530990007309900F02F7208703A03192A
:100FCA00DF2FC03A0319DD2F603A0319DB2F303ABD
:100FDA000319D92FF02FC330F100CD30F000F00BF8
:100FEA00F42FF10BF42FD42F0A128A11002883014F
:060FFA000A128A11CF2F3C
:02400E003B3F36
:00000001FF
